{
  "contractName": "Lottery",
  "abi": [
    {
      "inputs": [
        {
          "internalType": "uint256",
          "name": "amount",
          "type": "uint256"
        }
      ],
      "stateMutability": "nonpayable",
      "type": "constructor"
    },
    {
      "inputs": [],
      "name": "fee",
      "outputs": [
        {
          "internalType": "uint256",
          "name": "",
          "type": "uint256"
        }
      ],
      "stateMutability": "view",
      "type": "function",
      "constant": true
    },
    {
      "inputs": [
        {
          "internalType": "uint256",
          "name": "",
          "type": "uint256"
        }
      ],
      "name": "players",
      "outputs": [
        {
          "internalType": "address",
          "name": "",
          "type": "address"
        }
      ],
      "stateMutability": "view",
      "type": "function",
      "constant": true
    },
    {
      "inputs": [],
      "name": "winner",
      "outputs": [
        {
          "internalType": "address",
          "name": "",
          "type": "address"
        }
      ],
      "stateMutability": "view",
      "type": "function",
      "constant": true
    },
    {
      "stateMutability": "payable",
      "type": "receive",
      "payable": true
    },
    {
      "inputs": [],
      "name": "PickWinner",
      "outputs": [],
      "stateMutability": "nonpayable",
      "type": "function"
    },
    {
      "inputs": [],
      "name": "ResetGame",
      "outputs": [],
      "stateMutability": "nonpayable",
      "type": "function"
    },
    {
      "inputs": [],
      "name": "TotalStake",
      "outputs": [
        {
          "internalType": "uint256",
          "name": "",
          "type": "uint256"
        }
      ],
      "stateMutability": "view",
      "type": "function",
      "constant": true
    }
  ],
  "bytecode": "0x60806040523480156200001157600080fd5b5060405162000ea438038062000ea48339818101604052810190620000379190620000da565b336000806101000a81548173ffffffffffffffffffffffffffffffffffffffff021916908373ffffffffffffffffffffffffffffffffffffffff160217905550670de0b6b3a7640000816200008d91906200013b565b6003819055505062000186565b600080fd5b6000819050919050565b620000b4816200009f565b8114620000c057600080fd5b50565b600081519050620000d481620000a9565b92915050565b600060208284031215620000f357620000f26200009a565b5b60006200010384828501620000c3565b91505092915050565b7f4e487b7100000000000000000000000000000000000000000000000000000000600052601160045260246000fd5b600062000148826200009f565b915062000155836200009f565b925082820262000165816200009f565b915082820484148315176200017f576200017e6200010c565b5b5092915050565b610d0e80620001966000396000f3fe6080604052600436106100595760003560e01c806351633a1014610199578063b7d2c654146101c4578063c41db7bf146101db578063ddca3f43146101f2578063dfbf53ae1461021d578063f71d96cb1461024857610194565b36610194573373ffffffffffffffffffffffffffffffffffffffff1660008054906101000a900473ffffffffffffffffffffffffffffffffffffffff1673ffffffffffffffffffffffffffffffffffffffff16036100ec576040517f08c379a00000000000000000000000000000000000000000000000000000000081526004016100e390610750565b60405180910390fd5b6003543414610130576040517f08c379a0000000000000000000000000000000000000000000000000000000008152600401610127906107bc565b60405180910390fd5b6002339080600181540180825580915050600190039060005260206000200160009091909190916101000a81548173ffffffffffffffffffffffffffffffffffffffff021916908373ffffffffffffffffffffffffffffffffffffffff1602179055005b600080fd5b3480156101a557600080fd5b506101ae610285565b6040516101bb91906107f5565b60405180910390f35b3480156101d057600080fd5b506101d961028d565b005b3480156101e757600080fd5b506101f0610481565b005b3480156101fe57600080fd5b50610207610614565b60405161021491906107f5565b60405180910390f35b34801561022957600080fd5b5061023261061a565b60405161023f9190610851565b60405180910390f35b34801561025457600080fd5b5061026f600480360381019061026a919061089d565b610640565b60405161027c9190610851565b60405180910390f35b600047905090565b3360008054906101000a900473ffffffffffffffffffffffffffffffffffffffff1673ffffffffffffffffffffffffffffffffffffffff168173ffffffffffffffffffffffffffffffffffffffff161461031c576040517f08c379a00000000000000000000000000000000000000000000000000000000081526004016103139061093c565b60405180910390fd5b60036002805490501015610365576040517f08c379a000000000000000000000000000000000000000000000000000000000815260040161035c906109ce565b60405180910390fd5b6000600280549050905060008161037a61067f565b6103849190610a1d565b90506002818154811061039a57610399610a4e565b5b9060005260206000200160009054906101000a900473ffffffffffffffffffffffffffffffffffffffff16600160006101000a81548173ffffffffffffffffffffffffffffffffffffffff021916908373ffffffffffffffffffffffffffffffffffffffff160217905550600160009054906101000a900473ffffffffffffffffffffffffffffffffffffffff1673ffffffffffffffffffffffffffffffffffffffff166108fc479081150290604051600060405180830381858888f1935050505015801561046d573d6000803e3d6000fd5b506002600061047c91906106b5565b505050565b3360008054906101000a900473ffffffffffffffffffffffffffffffffffffffff1673ffffffffffffffffffffffffffffffffffffffff168173ffffffffffffffffffffffffffffffffffffffff1614610510576040517f08c379a00000000000000000000000000000000000000000000000000000000081526004016105079061093c565b60405180910390fd5b600060028054905011610558576040517f08c379a000000000000000000000000000000000000000000000000000000000815260040161054f90610ac9565b60405180910390fd5b60005b600280549050811015610602576002818154811061057c5761057b610a4e565b5b9060005260206000200160009054906101000a900473ffffffffffffffffffffffffffffffffffffffff1673ffffffffffffffffffffffffffffffffffffffff166108fc6003549081150290604051600060405180830381858888f193505050501580156105ee573d6000803e3d6000fd5b5080806105fa90610b18565b91505061055b565b506002600061061191906106b5565b50565b60035481565b600160009054906101000a900473ffffffffffffffffffffffffffffffffffffffff1681565b6002818154811061065057600080fd5b906000526020600020016000915054906101000a900473ffffffffffffffffffffffffffffffffffffffff1681565b60004244600260405160200161069793929190610c9f565b6040516020818303038152906040528051906020012060001c905090565b50805460008255906000526020600020908101906106d391906106d6565b50565b5b808211156106ef5760008160009055506001016106d7565b5090565b600082825260208201905092915050565b7f4f776e65722043616e6e6f742050617274696369706174650000000000000000600082015250565b600061073a6018836106f3565b915061074582610704565b602082019050919050565b600060208201905081810360008301526107698161072d565b9050919050565b7f457861637420457468657220616d6f756e74206973206e6f7420676976656e00600082015250565b60006107a6601f836106f3565b91506107b182610770565b602082019050919050565b600060208201905081810360008301526107d581610799565b9050919050565b6000819050919050565b6107ef816107dc565b82525050565b600060208201905061080a60008301846107e6565b92915050565b600073ffffffffffffffffffffffffffffffffffffffff82169050919050565b600061083b82610810565b9050919050565b61084b81610830565b82525050565b60006020820190506108666000830184610842565b92915050565b600080fd5b61087a816107dc565b811461088557600080fd5b50565b60008135905061089781610871565b92915050565b6000602082840312156108b3576108b261086c565b5b60006108c184828501610888565b91505092915050565b7f5065726d697373696f6e2044656e6965642e596f7520617265206e6f7420746860008201527f652041646d696e2e000000000000000000000000000000000000000000000000602082015250565b60006109266028836106f3565b9150610931826108ca565b604082019050919050565b6000602082019050818103600083015261095581610919565b9050919050565b7f43616e6e6f74205069636b2057696e6e65722041732056657279204c6573732060008201527f5061727469636970616e747320686173206a6f696e6564000000000000000000602082015250565b60006109b86037836106f3565b91506109c38261095c565b604082019050919050565b600060208201905081810360008301526109e7816109ab565b9050919050565b7f4e487b7100000000000000000000000000000000000000000000000000000000600052601260045260246000fd5b6000610a28826107dc565b9150610a33836107dc565b925082610a4357610a426109ee565b5b828206905092915050565b7f4e487b7100000000000000000000000000000000000000000000000000000000600052603260045260246000fd5b7f4e6f207061727469636970616e7473206a6f696e656400000000000000000000600082015250565b6000610ab36016836106f3565b9150610abe82610a7d565b602082019050919050565b60006020820190508181036000830152610ae281610aa6565b9050919050565b7f4e487b7100000000000000000000000000000000000000000000000000000000600052601160045260246000fd5b6000610b23826107dc565b91507fffffffffffffffffffffffffffffffffffffffffffffffffffffffffffffffff8203610b5557610b54610ae9565b5b600182019050919050565b6000819050919050565b610b7b610b76826107dc565b610b60565b82525050565b600081549050919050565b600081905092915050565b60008190508160005260206000209050919050565b610bb581610830565b82525050565b6000610bc78383610bac565b60208301905092915050565b60008160001c9050919050565b600073ffffffffffffffffffffffffffffffffffffffff82169050919050565b6000610c13610c0e83610bd3565b610be0565b9050919050565b6000610c268254610c00565b9050919050565b6000600182019050919050565b6000610c4582610b81565b610c4f8185610b8c565b9350610c5a83610b97565b8060005b83811015610c9257610c6f82610c1a565b610c798882610bbb565b9750610c8483610c2d565b925050600181019050610c5e565b5085935050505092915050565b6000610cab8286610b6a565b602082019150610cbb8285610b6a565b602082019150610ccb8284610c3a565b915081905094935050505056fea264697066735822122076da2fe3e30d17509f0fb01cf69f434b1d2eb1606d83a1920c514429df698c6b64736f6c63430008120033",
  "immutableReferences": {},
  "source": "// SPDX-License-Identifier: GPL-3.0\r\n\r\npragma solidity >=0.7.0 <0.9.0;\r\n\r\ncontract Lottery\r\n{\r\n    address owner;\r\n    address public winner;\r\n    address[] public players;\r\n    uint public fee;\r\n\r\n    constructor(uint amount)\r\n    {\r\n        owner=msg.sender;\r\n        fee=amount * 1 ether;\r\n    }\r\n\r\n    receive() external payable \r\n    { \r\n        require(owner!=msg.sender,\"Owner Cannot Participate\");\r\n\r\n        require(msg.value == fee,\"Exact Ether amount is not given\");\r\n\r\n        players.push(msg.sender);\r\n    }\r\n\r\n    modifier onlyOwner(address checker)\r\n    {\r\n        require(checker == owner,\"Permission Denied.You are not the Admin.\");\r\n        _;\r\n    }\r\n\r\n    function getRandomNumber() internal view returns(uint)\r\n    {\r\n        return uint(keccak256(abi.encodePacked(block.timestamp,block.prevrandao,players)));\r\n    }\r\n\r\n    function PickWinner() public  onlyOwner(msg.sender)\r\n    {\r\n        require(players.length >=3 ,\"Cannot Pick Winner As Very Less Participants has joined\");\r\n\r\n        uint len=players.length;\r\n        uint index=getRandomNumber() % len ;\r\n        winner=players[index];\r\n\r\n        payable(winner).transfer(address(this).balance);\r\n\r\n        delete players; \r\n    }\r\n\r\n    function ResetGame() public onlyOwner(msg.sender)\r\n    {\r\n        require(players.length>0,\"No participants joined\");\r\n\r\n        for(uint i=0;i<players.length;i++)\r\n        {\r\n            payable(players[i]).transfer(fee);\r\n        }\r\n\r\n        delete players;\r\n    }\r\n    function TotalStake() public view returns(uint)\r\n    {\r\n        return address(this).balance;\r\n    }\r\n\r\n}",
  "sourcePath": "E:\\VSCODE\\Truffle Projects\\Demo\\contracts\\Lottery.sol",
  "compiler": {
    "name": "solc",
    "version": "0.8.18+commit.87f61d96.Emscripten.clang"
  },
  "schemaVersion": "3.4.16",
  "updatedAt": "2025-08-01T18:52:27.632Z",
  "networkType": "ethereum",
  "devdoc": {
    "kind": "dev",
    "methods": {},
    "version": 1
  },
  "userdoc": {
    "kind": "user",
    "methods": {},
    "version": 1
  }
}